:100000000CC17BC32FC12EC186C32CC12BC12AC1F9
:1000100029C128C127C1A2C325C124C123C122C12E
:1000200021C15354415455530909203D20307825AE
:100030003032782052585F44523D25782054585F22
:1000400044533D2578204D41585F52543D2578203A
:1000500052585F505F4E4F3D25782054585F4655AB
:100060004C4C3D25780D0A004F4253455256455F92
:1000700054583D253032783A20504F4C535F434E10
:10008000543D2578204152435F434E543D25780D21
:100090000A002553092563203D00203078253032A1
:1000A00078000D0A002553092563203D0020307893
:1000B0000025303278000D0A0052585F4144445206
:1000C0005F50302D310052585F414444525F5032EE
:1000D0002D350054585F414444520052585F5057E8
:1000E0005F50302D3600454E5F414100454E5F5216
:1000F00058414444520052465F43480052465F53C1
:100100004554555000434F4E4649470044594E50C0
:10011000442F464541545552450089018F019501B0
:1001200044617461205261746509203D2025530D9E
:100130000A009D01A6014D6F64656C0909203D20F0
:1001400025530D0A00B001B901C001435243204CB0
:10015000656E67746809203D2025530D0A00C801AB
:10016000CF01D601DD01504120506F776572092023
:100170003D2025530D0A000A0B0C0D0E0F11121312
:10018000141516000102030405314D42505300328C
:100190004D425053003235304B425053006E524660
:1001A00032344C3031006E524632344C30312B00F8
:1001B00044697361626C656400382062697473001D
:1001C000313620626974730050415F4D494E0050D2
:1001D000415F4C4F57004C415F4D45440050415FDB
:1001E00048494748000000010203040000000000E5
:1001F00000010204804020100804020102020201F2
:1002000001010101010101003240003936003B3893
:10021000003A37009903BE09FA0911241FBECFE541
:10022000D2E0DEBFCDBF11E0A0E6B0E0E0E2FDE14C
:1002300002C005900D92A431B107D9F711E0A4E1F5
:10024000B1E001C01D92AA34B107E1F712E0CAE1A2
:10025000D2E003C02297FE01F4D8C431D107D1F710
:100260001AD85CCDCDCECF93C82FA0913A01B091D2
:100270003B01ED91FC9111970280F381E02DCD01BE
:100280006C2F09952C2F332727FD30958C2F932F1A
:10029000CF91089583E391E060E070E005DA08957E
:1002A0008A3008F089E0982F977083FD906284B7B8
:1002B000877F84BF88E181BD906591BD0895CF920D
:1002C000DF92EF92FF920F931F93CF93DF938AE019
:1002D00060E010D38AE061E041D364E170E080E047
:1002E00090E0C2D28AE06ED3009719F081E090E0EE
:1002F00002C082E090E090931E0180931D018AE08D
:1003000060E02CD38EE391E090933B0180933A011F
:10031000E0913E01F0913F010190F081E02D0995BF
:10032000B9DF88E391E060E670E0EFD700D000D05D
:100330008EE790E0EDB7FEB792838183E0911D01D7
:10034000F0911E01EE0FFF1FE451FF4F808191815C
:10035000EDB7FEB794838383F0D90F900F900F9081
:100360000F908FE191E04ED78FE191E066E2B8D433
:100370008FE191E062E070E0F4D68FE191E061EF0F
:1003800041E09CD68FE191E06FE04FE07BD7809118
:100390001D0190911E018130910579F48FE191E06A
:1003A00001EF10EF20EF38EE48EA50E060E070E037
:1003B000DCD58FE191E0CDD411C08FE191E061E017
:1003C00021EFE22E30EFF32E00EF18EE28EA30E0B6
:1003D00040E050E003D68FE191E089D480911D0187
:1003E00090911E018130910531F488E060E082D265
:1003F00088E061E0B3D280911D0190911E018230AE
:10040000910511F487E04CDF89E061E073D210922E
:100410001C0189E060E0A2D280911D0190911E0133
:100420008230910529F4C4E0D0E084E690E004C075
:10043000C2E0D0E08CE291E06C01EE24D7FCE094C5
:10044000FE2CC701B60110D289E061E087D2C70156
:10045000B6010AD289E060E081D2219791F7DF915D
:10046000CF911F910F91FF90EF90DF90CF90089563
:1004700080911D0190911E018130910519F08FE14D
:1004800091E067D48FE191E071D480911D0190914A
:100490001E018130910531F48BB780648BBF85B725
:1004A0008C7F85BF479A379885B7877E806185BFE7
:1004B00085B7806285BFF89485B7846880931501FD
:1004C000982F9B7F9093140185BF95BF7894889552
:1004D000F89480911D0190911E018130910509F4DD
:1004E0001BBE25B72F7D25BF78948230910519F466
:1004F0008FE191E0FCD365E070E080E090E0B4D162
:100500000895CF9380911D0190911E018130910536
:1005100009F0A1C088E056D2C1E0009709F0C0E020
:1005200000D000D0EDB7FEB7319689E890E0ADB7C6
:10053000BEB712969C938E931197C2831382FDD8F7
:100540000F900F900F900F9080911B01C81761F0D2
:1005500088EE93E09093180180931701C0931B01DC
:10056000C0931C0121E001C020E08091170190910F
:100570001801009709F45AC0222329F4809116012A
:10058000882309F053C000D08BE990E0EDB7FEB7A7
:1005900092838183D2D80F900F9089E060911C01E3
:1005A000DDD18FE191E0EFD36AE070E080E090E090
:1005B0005BD18FE191E06BE171E041E089D4809300
:1005C0001601882369F000D08AEA90E0ADB7BEB783
:1005D00012969C938E931197B0D80F900F901FC0D6
:1005E00000D08FEA90E0EDB7FEB792838183A5D863
:1005F00080911701909118010197909318018093B1
:1006000017010F900F9089E060E0A8D169E170E0D8
:1006100080E090E029D189E060911C019FD18FE1B9
:1006200091E0A4D310921A0110921901809119013E
:1006300090911A01019690931A018093190180916B
:10064000190190911A018B3091052CF011DF109255
:100650001A011092190180911D0190911E018230A2
:10066000910509F048C08FE191E002D4882371F12F
:1006700010921A01109219018FE191E06BE171E083
:1006800041E0FAD38823C1F300D000D0EDB7FEB724
:10069000319688EB90E0ADB7BEB712969C938E93DF
:1006A000119780911B018283138247D860911B01AF
:1006B00060931C010F900F900F900F9089E04ED126
:1006C00080EF98ED90931A018093190180911901A0
:1006D00090911A01019690931A01809319018091CB
:1006E000190190911A01B1E0853F9B0724F0109207
:1006F0001A0110921901CF9108951F920F920FB60F
:100700000F92112410921A01109219010F900FBE2E
:100710000F901F9018951F920F920FB60F921124F1
:1007200010921A01109219010F900FBE0F901F9096
:1007300018958FE191E063E047E0BFD208958EB550
:10074000887F8EBD8FB58C7F81608FBD8EB5877E93
:100750008EBD8EB5887F83608EBD08951F920F92E7
:100760000FB60F9211242F933F938F939F93AF93C4
:10077000BF9380912F0190913001A0913101B091F0
:10078000320130913701232F2A5F2D3728F02D5762
:100790000396A11DB11D03C00296A11DB11D20939A
:1007A000370180932F0190933001A0933101B093D2
:1007B00032018091330190913401A0913501B091C3
:1007C00036010196A11DB11D809333019093340130
:1007D000A0933501B0933601BF91AF919F918F9156
:1007E0003F912F910F900FBE0F901F9018950F9370
:1007F0001F938FB7F89400912F0110913001209131
:100800003101309132018FBFB801C9011F910F91A1
:1008100008950F931F939FB7F8940091330110919F
:100820003401209135013091360182B748B740FF3D
:1008300006C08F3F21F00F5F1F4F2F4F3F4F9FBFCD
:10084000322F212F102F0027080F111D211D311DC0
:1008500043E0000F111F221F331F4A95D1F7B80143
:10086000C9011F910F910895CF92DF92EF92FF92ED
:10087000CF93DF936B017C01CCDFDC01CB01EC017A
:100880000EC0C7DF6C1B7D0B83E0683E780738F035
:100890000894C108D108E108F108C851DC4FC1141F
:1008A000D104E104F10469F7DF91CF91FF90EF905B
:1008B000DF90CF900895019739F0019729F0880FC4
:1008C000991F01970197F1F70895789480B7836095
:1008D00080BF83B7877F83BF83B7887F836083BFF1
:1008E00089B7816089BF2BDF86B1887F866086B932
:1008F000379A0895CF93DF9390E0FC01EF50FE4FBD
:10090000249184509E4FFC018491882321F190E032
:10091000FC01E05FFD4FA491B0E0835F9D4FFC01BF
:100920008491C82FD0E09FB7F8948C91662331F45E
:10093000209582238C938881822308C0623041F401
:10094000322F309583238C938881822B888302C039
:10095000822B8C939FBFDF91CF910895282F30E099
:10096000F901EF50FE4F9491F901E450FE4FE491EC
:10097000EE2339F1823019F480B78F7304C08330CD
:1009800021F480B78F7C80BF0AC0843019F48FB502
:100990008F7304C0853019F48FB58F7C8FBDF0E064
:1009A000E35FFD4FA491B0E02FB7F8948C916623DC
:1009B00029F4909589238C932FBF0895892B8C93CC
:1009C0002FBF0895282F30E0F901EF50FE4F94918A
:1009D000F901E450FE4FE491EE2311F1823019F455
:1009E00080B78F7304C0833021F480B78F7C80BFC1
:1009F0000AC0843019F48FB58F7304C0853019F4A0
:100A00008FB58F7C8FBDF0E0E65FFD4FE491F0E0A5
:100A10002081292381E090E029F480E090E008958E
:100A200080E090E008950F931F93CF93DF930F9290
:100A3000CDB7DEB78C0181E06983FED480E0FDD4C0
:100A400080E0FCD4F8018181698188DF0F90DF911B
:100A5000CF911F910F910895EF92FF920F931F93E3
:100A6000CF93DF937C01162FEA01022F60E070E044
:100A7000DADF812F8F71D7D4182F04C08FEFD3D432
:100A8000899301500023D1F7C70161E070E0CBDF0B
:100A9000812FDF91CF911F910F91FF90EF900895DB
:100AA0001F93CF93DF93EC01162F60E070E0BBDF64
:100AB000812F8F71B8D48FEFB6D4182FCE0161E09B
:100AC00070E0B1DF812FDF91CF911F910895EF92F8
:100AD000FF920F931F93CF93DF937C01162FEA01B0
:100AE000022F60E070E09FDF812F8F7180629BD4C6
:100AF000182F03C0899197D401500023D9F7C7015B
:100B000061E070E090DF812FDF91CF911F910F9115
:100B1000FF90EF900895EF92FF921F93CF93DF9392
:100B20000F92CDB7DEB77C01162F60E070E04983ED
:100B30007ADF812F8F71806276D4182F4981842FBC
:100B400072D4C70161E070E06EDF812F0F90DF91FA
:100B5000CF911F91FF90EF900895BF92CF92DF92B7
:100B6000EF92FF920F931F93CF93DF93EC017B01E2
:100B7000CC80D42EC41608F4DC2C8E81882311F48A
:100B8000CD1801C0CC24CE0160E070E04CDF80EADB
:100B90004AD4B82E870105C0F80181918F0143D452
:100BA000DA94DD20C9F703C080E03DD4CA94CC209C
:100BB000D9F7CE0161E070E036DF8B2DDF91CF9168
:100BC0001F910F91FF90EF90DF90CF90BF9008950D
:100BD000BF92CF92DF92EF92FF920F931F93CF932A
:100BE000DF93EC017B01CC80D42EC41608F4DC2CFE
:100BF0008E81882311F4CD1801C0CC24CE0160E091
:100C000070E011DF81E60FD4B82E870106C08FEFA8
:100C10000AD4F80181938F01DA94DD20C1F703C073
:100C20008FEF01D4CA94CC20D9F7CE0161E070E0F7
:100C3000FADE8B2DDF91CF911F910F91FF90EF90F6
:100C4000DF90CF90BF9008951F93CF93DF93EC0177
:100C500060E070E0E8DE82EEE6D3182FCE0161E0BE
:100C600070E0E1DE812FDF91CF911F9108951F93F6
:100C7000CF93DF93EC0160E070E0D5DE81EED3D35B
:100C8000182FCE0161E070E0CEDE812FDF91CF9191
:100C90001F9108951F93CF93DF93EC0160E070E004
:100CA000C2DE8FEFC0D3182FCE0161E070E0BBDE53
:100CB000812FDF91CF911F910895FC0160834183C3
:100CC00081E08283138280E28483158216821086FB
:100CD0001186128613861486158616861786089541
:100CE000462F603808F04FE765E015DF0895CF9391
:100CF000DF93EC0160E0D4DE482F4360CE0160E07A
:100D00000ADFCE0167E040E706DF88859985892BF9
:100D10009A85892B9B85892B9C85892B9D85892B81
:100D20009E85892B9F85892B39F0AE01485F5F4FE7
:100D3000CE016AE025E0CBDECE0186DFCE0197DF73
:100D4000888161E00BDE82E890E0B5DDDF91CF9134
:100D50000895CF93DF93EC01888160E0FFDDCE0141
:100D600086DFCE0171DFDF91CF910895CF93DF93BE
:100D7000EC0160E095DE482F4D7FCE0160E0CBDED8
:100D8000DF91CF910895CF93DF93EC0160E088DE8F
:100D9000482F4260CE0160E0BEDEDF91CF91089522
:100DA000FF920F931F93CF93DF93EC018B01F42EEF
:100DB00060E076DE482F4C7F4260CE0160E0ABDE23
:100DC00086E990E078DDCE01B8014F2DC6DE88813E
:100DD00061E0C4DD8FE090E06EDD888160E0BEDD23
:100DE000DF91CF911F910F91FF9008951F93CF93A3
:100DF000DF93EC0160E070E016DE80E614D38FEF45
:100E000012D3182FCE0161E070E00DDE812FDF914B
:100E1000CF911F910895CF92DF92EF92FF921F938F
:100E2000CF93DF93EC017B0135DFC82EDD2411E089
:100E300086FD02C010E013C0E114F10431F0960108
:100E4000359527952770F7012083CE0167E040E4B0
:100E500062DEC5FE04C0CE0167E040E25CDE812FA9
:100E6000DF91CF911F91FF90EF90DF90CF90089589
:100E700060E070E0D0DF0895CF93DF93EC01A8DE4F
:100E8000CE0167E10DDE8170DF91CF910895EF9281
:100E9000FF920F931F93CF93DF937B018A01E901A8
:100EA00067E040E738DE21E085FF20E0F70120839E
:100EB00021E084FF20E0F801208391E086FF90E0AC
:100EC0009883DF91CF911F910F91FF90EF9008953C
:100ED000CF92DF92EF92FF920F931F93CF93DF9306
:100EE00000D00F92CDB7DEB78C015ADF80DC6B01EA
:100EF0007C01C80168E0AE014D5F5F4F21E0ACDDD1
:100F0000807311F574DCDC01CB018C199D09AE09ED
:100F1000BF0984369105A105B10558F315C0C80174
:100F200065DFF8018783C80121DFC801A0DE8C2DB1
:100F30000F900F900F90DF91CF911F910F91FF9025
:100F4000EF90DF90CF90089598012B5F3F4FC8013D
:100F5000BE016E5F7F4FAE014F5F5F4F98DFCA806B
:100F6000F80185818823F9F2DACFEF92FF920F938F
:100F70001F93CF93DF93CDB7DEB728970FB6F894C2
:100F8000DEBF0FBECDBF7C0109831A832B833C8358
:100F90004D835E836F8378876AE0AE014F5F5F4F5A
:100FA00025E095DDC70160E1AE014F5F5F4F25E0B1
:100FB0008EDDF7014481413208F040E2C70161E172
:100FC000AADD28960FB6F894DEBF0FBECDBFDF9125
:100FD000CF911F910F91FF90EF900895BF92CF9204
:100FE000DF92EF92FF920F931F93CF93DF93CDB7D2
:100FF000DEB728970FB6F894DEBF0FBECDBF6C01E9
:10100000B62EE982FA820B831C832D833E834F83A5
:101010005887662351F4F601E086F186028713872C
:10102000248735874687578707C0F6E0F61708F408
:1010300035C081E0681759F4EB2DF0E0E958FE4F18
:101040006491C601AE014F5F5F4F25E00AC0E62FF5
:10105000F0E0E958FE4F6491C601AE014F5F5F4F6B
:1010600021E035DD0B2D10E0F801E358FE4F6491CF
:10107000C601F60144814FDDC60162E011DD0D5766
:101080001E4FF801049141E050E002C0440F551F8B
:101090000A95E2F7482BC60162E03DDD28960FB6BF
:1010A000F894DEBF0FBECDBFDF91CF911F910F919E
:1010B000FF90EF90DF90CF90BF900895EF92FF9256
:1010C0001F93CF93DF930F92CDB7DEB77C01162F1E
:1010D0006730D8F461E04983E3DC4981442349F077
:1010E00041E050E002C0440F551F1A95E2F7482B2B
:1010F00009C041E050E002C0440F551F1A95E2F7C5
:1011000040954823C70161E006DD0F90DF91CF9144
:101110001F91FF90EF9008950F931F93CF93DF934C
:101120008C01EB0166E0BCDC482F497FC330D10560
:1011300079F0C230D10511F444600BC0C130D10543
:1011400011F4426006C0209721F0C430D10509F4A3
:101150004660C80166E0DFDCDF91CF911F910F91FF
:101160000895EF92FF920F931F93CF93DF930F9207
:10117000CDB7DEB78C017B0166E092DCF80112820C
:10118000282F277DF2E0EF16F10411F4206208C049
:1011900081E0E816F10421F481E0F80182832860FF
:1011A000C80166E0422F2983B6DCC80166E078DC1E
:1011B0002981821721F0F801128280E001C081E0CC
:1011C0000F90DF91CF911F910F91FF90EF900895B5
:1011D0000F931F93CF93DF938C01EB0160E060DCF2
:1011E000482F437F209731F0C130D10511F448607A
:1011F00001C04C60C80160E08EDCDF91CF911F918F
:101200000F910895CF93DF93EC01888161E072DB49
:10121000898161E06FDBF5D0888160E09FDBCE01E2
:1012200061E070E000DC65E070E080E090E01CDBF5
:10123000CE0164E04FE46FDCCE0163E070E06CDF70
:10124000CE0162E070E08DDF882311F081E08B83B6
:10125000CE0160E070E085DFCE0162E070E0B8DFD3
:10126000CE016CE140E057DCCE0167E040E753DCA3
:10127000CE016CE435DDCE01E7DCCE01F8DCDF9198
:10128000CF910895262F4F702295207F242B64E064
:10129000422F41DC089519DB12D833D9FECF0F93CA
:1012A0001F93CF93DF938C01EB0108C0D801ED9120
:1012B000FC910190F081E02DC801099569916623A8
:1012C000A9F7DF91CF911F910F910895EF92FF92AF
:1012D0000F931F93CF93DF937C018B01EA010CC026
:1012E000D8016D918D01D701ED91FC910190F081B4
:1012F000E02DC70109952197209791F7DF91CF91B4
:101300001F910F91FF90EF900895DC01ED91FC91FA
:101310000280F381E02D099508950895089580E0F5
:1013200090E008958FEF9FEF08958FEF9FEF08955E
:101330000895DC0112968D919C911397DC01ED913B
:10134000FC910280F381E02D099581E090E0089501
:101350002CE331E0FC0133832283E0913C01F091E6
:101360003D010190F081E02DC9010995089526EF16
:1013700030E0FC0131832083EBDF089588E091E0C9
:1013800090933D0180933C0188E391E0F0DF089564
:10139000B89AC09A0895862F880F8E7162956F70E3
:1013A000606122E095E059E0F89407C00000000079
:1013B00000000000000000000000879510F0C098B9
:1013C00002C0C09A0000579510F40000000033E0FE
:1013D00049E54A95F1F700003A95D1F700009A9552
:1013E00029F700002A9521F095E0862F54E0E5CFFB
:1013F0007894089580E191E090933F0180933E01BD
:10140000089583E061E0AADA86E061E073DA85E0BE
:1014100061E070DA83E061E06DDA84E060E06ADA6E
:1014200080E18DB908958FB980E48EB98BE18DB9D3
:10143000769BFDCF8FB10895089508950895EE0F1E
:10144000FF1F0590F491E02D0994CF93DF93AC0139
:101450008230910510F442E050E0E0914201F091B9
:10146000430120E030E0A0E0B0E024C08081918121
:1014700084179507D0F08417950771F482819381C2
:10148000109729F013969C938E9312972CC09093EB
:1014900043018093420127C02115310519F08217BD
:1014A000930718F49C01BD01EF0192818381DF0154
:1014B000E92FF82F3097D1F621153105F9F0C90140
:1014C000841B950B8430910580F48A819B81611582
:1014D000710521F0FB019383828304C09093430143
:1014E00080934201FE01329642C0FE01E80FF91FCF
:1014F0004193519302979983888339C08091400129
:1015000090914101009741F48091E8009091E900A9
:1015100090934101809340012091E6003091E700D3
:101520002115310541F42DB73EB78091EA00909125
:10153000EB00281B390BE0914001F0914101E217CB
:10154000F30798F42E1B3F0B2417350770F0CA01E0
:1015500002962817390748F08E0F9F1F909341017C
:10156000809340014193519302C0E0E0F0E0CF014D
:10157000DF91CF9108950F931F93CF93DF939C0139
:10158000009709F48CC0DC01129713961C921E92EE
:10159000129760914201709143016115710589F4C0
:1015A0008D919C911197820F931F20914001309152
:1015B00041012817390769F5B0934101A093400113
:1015C0006EC0FB0140E050E001C0FC01EA17FB07E0
:1015D00030F482819381AF010097B9F71FC0E90110
:1015E0002297FB83EA8308811981C901800F911F2B
:1015F0008E179F0759F480819181800F911F029669
:1016000099838883828193819B838A8341155105C5
:1016100029F4B0934301A093420141C0FA01B3837E
:10162000A283C191D191EC0FFD1FAE17BF0781F4CA
:10163000F901929182918C0F9D1F0296DA01119609
:101640009C938E938281938113969C938E93129791
:10165000E0E0F0E002C0FB01BC01DB0112968D91DD
:101660009C9113970097B9F7CB0102962D913C916D
:101670001197820F931F209140013091410128174B
:10168000390769F4309729F410924301109242010E
:1016900002C0138212827093410160934001DF9176
:1016A000CF911F910F9108950F931F93CF93DF93C5
:1016B0008C01EB01009711F42097B9F181E090E0E3
:1016C0006EE070E017D2FC01009789F180E8838317
:1016D000209771F0D387C28781E88383809144018A
:1016E00090914501009721F4F0934501E093440166
:1016F00001151105E1F011870087838182608383E2
:101700008091460190914701009789F4F093470139
:10171000E09346018091480190914901009739F486
:10172000F0934901E093480102C0E0E0F0E0CF010E
:10173000DF91CF911F910F910895A0E0B0E0E2EA10
:10174000FBE0C5C2FE013596619171918091460121
:1017500090914701AF0103D02096E2E0D4C2ADE002
:10176000B0E0E4EBFBE0A3C23C017D876C875A014B
:10177000FC0117821682838181FFB7C12E01089474
:10178000411C511CF3019381EC85FD8593FD8591EE
:1017900093FF8191FD87EC87882309F4A2C18532EC
:1017A00041F493FD859193FF8191FD87EC8785320C
:1017B00021F490E0B301D4D1E5CFDD24EE2410E094
:1017C0001032B0F48B3269F08C3228F4803251F050
:1017D000833271F40BC08D3239F0803349F41160DB
:1017E00028C01260146025C0186023C0106121C099
:1017F00017FD2AC0282F20532A3078F416FF06C080
:101800008D2D6AE039D2D82ED20E13C08E2D6AE00B
:1018100033D2E82EE20E10620CC08E3221F416FD97
:1018200060C1106406C08C3611F4106802C088369E
:1018300059F4EC85FD8593FD859193FF8191FD879A
:10184000EC87882309F0BCCF982F9554933018F07B
:101850009052933038F424E030E0A20EB31E3FE300
:1018600039830FC0833631F0833781F0833509F037
:1018700056C021C0F5018081898322E030E0A20EAC
:10188000B31E21E0C22ED12C420113C092E0292EBA
:10189000312C2A0C3B1CF5018080918016FF03C07F
:1018A0006D2D70E002C06FEF7FEFC4014ED16C016F
:1018B00051011F7714C082E0282E312C2A0C3B1CCA
:1018C000F5018080918016FF03C06D2D70E002C08D
:1018D0006FEF7FEFC40127D16C011068510113FD38
:1018E0001AC005C080E290E0B3013AD1EA948E2D8F
:1018F00090E0C816D906B0F30EC0F40117FD85912B
:1019000017FF81914F0190E0B3012AD1E110EA94D1
:101910000894C108D108C114D10479F7DFC0843616
:1019200011F0893649F5F50117FF07C080819181D3
:10193000A281B38124E030E008C080819181AA2790
:1019400097FDA095BA2F22E030E0A20EB31E012F22
:101950000F76B7FF08C0B095A095909581959F4FE1
:10196000AF4FBF4F0068BC01CD01A2012AE030E0BB
:1019700023D1F82EF4183EC0853721F41F7E2AE0CB
:1019800030E020C0197F8F36A9F0803720F48835E9
:1019900009F0A7C00BC0803721F0883709F0A1C03B
:1019A00001C0106114FF09C0146007C014FF08C013
:1019B000166006C028E030E005C020E130E002C03B
:1019C00020E132E0F50117FF07C06081718182815B
:1019D000938144E050E006C06081718180E090E036
:1019E00042E050E0A40EB51EA201E6D0F82EF41895
:1019F000012F0F7706FF09C00E7FFD1430F404FF9E
:101A000006C002FD04C00F7E02C01F2D01C01D2DA7
:101A1000802F90E004FF0CC0FE01EF0DF11D20812E
:101A2000203311F4097E09C002FF06C01E5F05C005
:101A300086789070009709F01F5F802E992403FD2F
:101A400011C000FF0CC0DF2C1E1548F4DE0CD11AAB
:101A50001E2D05C080E290E0B30182D01F5F1E15ED
:101A6000C8F304C01E1510F4E11A01C0EE2484FE70
:101A70000EC080E390E0B30173D082FE1DC081FEF2
:101A800003C088E590E010C088E790E00DC0C40175
:101A900086789070009781F081FC02C080E201C0DE
:101AA0008BE207FD8DE290E0B3015AD005C080E3E0
:101AB00090E0B30155D0DA94FD14C8F3FA94F20122
:101AC000EF0DF11D808190E0B3014AD0FF20B1F706
:101AD00005C080E290E0B30143D0EA94EE20C9F75C
:101AE00051CEF3018681978102C08FEF9FEF2D9633
:101AF000E2E1F9C0A2E0B0E0EFE7FDE0E6C09C0162
:101B0000CB01B901C2D0AC0149835A839EDC8C0160
:101B100049815A81009719F060E070E00FD0C80148
:101B20002296E4E0EEC0FC01059061507040011087
:101B3000D8F7809590958E0F9F1F0895DC0101C006
:101B40006D9341505040E0F70895FC0161507040A2
:101B500001900110D8F7809590958E0F9F1F0895E2
:101B60000F931F93CF93DF938C01EB018B8181FF48
:101B70001BC082FF0DC02E813F818C819D81281763
:101B8000390764F4E881F9810193F983E88306C099
:101B9000E885F985802F0995009731F48E819F8122
:101BA00001969F838E8302C00FEF1FEFC801DF9164
:101BB000CF911F910F910895FA01AA27283061F162
:101BC000203191F1E8946F936E7F6E5F7F4F8F4F5E
:101BD0009F4FAF4FB1E040D0B4E03ED0670F781FC9
:101BE000891F9A1FA11D680F791F8A1F911DA11DB2
:101BF0006A0F711D811D911DA11D22D009F46894E9
:101C00003F91062E000C3019000C000C3019305D8D
:101C10003193CEF6CF010895462F4770405D419332
:101C2000B3E00FD0C9F7F6CF462F4F70405D4A336F
:101C300018F0495D31FD4052419302D0A9F7EACF37
:101C4000B4E0A6959795879577956795BA95C9F766
:101C500000976105710508959B01AC010A2E069459
:101C60005795479537952795BA95C9F7620F731F12
:101C7000841F951FA01D0895002480FD060E660F89
:101C800011F08695D1F7802D08955527002480FF07
:101C900002C0060E571F660F771F6115710521F0F0
:101CA00096958795009799F7952F802D08952F92F7
:101CB0003F924F925F926F927F928F929F92AF92DC
:101CC000BF92CF92DF92EF92FF920F931F93CF9329
:101CD000DF93CDB7DEB7CA1BDB0B0FB6F894DEBFC0
:101CE0000FBECDBF09942A88398848885F846E84E6
:101CF0007D848C849B84AA84B984C884DF80EE8030
:101D0000FD800C811B81AA81B981CE0FD11D0FB638
:101D1000F894DEBF0FBECDBFED010895F894FFCF5C
:101D20000A0D524632342F6578616D706C65732FE1
:101D30006C65645F72656D6F74652F0A0D00524F9C
:101D40004C453A2025730A0D0053656E736F72205F
:101D500073746174653A2025640A004E6F772073AE
:101D6000656E64696E672E2E2E006F6B0A0D00661D
:101D700061696C65640A0D00476F74206275747444
:101D80006F6E733A2025640A0D00696E76616C6986
:101D9000640052656D6F7465004C454420426F616C
:101DA0007264002E000000004A012000CA00D20028
:101DB000D9000000000099094F0966098F099509AB
:101DC00092099809000000008D098E0900000000AA
:041DD000C809CB096A
:00000001FF
